:020000000A28CC
:10000800FE00030EC4000A08C5009C280B28C7017F
:1000180083015B287620003A03191328142839280D
:10002800C201C30100000130C2070318C30A00302F
:10003800C30727304302103003194202031C252846
:10004800262816280130C1004108C7070430470296
:10005800031C2F2830283128C701FE30C100410871
:100068009C05FE30C10041088B0508000614FE30CF
:10007800C600460888051B148B19432844284528C0
:100088008B158B1B482849284A288B170B184D2895
:100098004E285228FE30C60046088B051C1C5528E1
:1000A80056285A28FE30C60046089C0508003A2003
:1000B8008420A420BE20003A031D632864286528F4
:1000C8005E28BE20013A031D6A286B286C285E282A
:1000D800BE20023A031D7128722873285E28BE20AC
:1000E8005E280A28C0010B0803197B287C2882286F
:1000F8001C1C7F2880288228C001C00A40080800EC
:10010800FB30C60046088605FB30C6004608880551
:10011800FB30C60046088705080060309000901D37
:10012800962897289328101C9A289B289728080017
:100138000E2045088A00440E8300FE0E7E0E09003C
:100148009120B020AB20B520BC20BA200800FE309A
:10015800C6004608B0050800BF30C6004608A60518
:100168000800FE30C60046089F050800BE140800B7
:080178009D0108004708080082
:02400E00E03D93
:00000001FF
