:020000000A28CC
:10000800FE00030EC4000A08C50005290B28CD010F
:1000180083013A28E220003A0319132814283928C2
:10002800C201C30100000130C2070318C30A00302F
:10003800C30727304302103003194202031C252846
:10004800262816280130C1004108CD0704304D028A
:10005800031C2F2830283128CD01FE30C10041086B
:100068009C05FE30C10041088B0508008020EF2068
:100078003721003A031D41284228452835216300CD
:100088003C283721013A031D4A284B284D281421C2
:100098003C283721023A031D5228532855280D21A0
:1000A8003C283721033A031D5A285B285D281B2169
:1000B8003C283C280A284708CB004608CA00FF30DD
:1000C800CA050330CB054A080339C80005300310B8
:1000D800C80DFF3E031D6B280310480D97004B0801
:1000E800C9004A08C8000310C90CC80C0310C90C81
:1000F800C80C4808980008000614FE30C6004608D8
:1001080088051B148B1989288A288B288B158B1B2B
:100118008E288F2890288B170B18932894289828B6
:10012800FE30C60046088B051C1C9B289C28A0286E
:10013800FE30C60046089C050800FD30CC004C087F
:10014800880586149901643092001430C600003086
:10015800C7005F20FD30CC004C088C0505309300AB
:10016800803099008C1CB928BA28B628FD30CC00FC
:100178004C08860519170800990192010030C6003D
:10018800C7005F2093019901FD30CC004C0886051B
:10019800FD30CC004C088805FD30CC004C088705A4
:1001A8000800FB30C60046088605FB30C600460836
:1001B8008805FB30C600460887050800C0010B1CEF
:1001C800E628E728ED281C1CEA28EB28ED28C001C2
:1001D800C00A400808007F308E008915FA202721C0
:1001E80022212C2133213121D520080060309000B4
:1001F800901DFF280029FC28101C03290429002928
:1002080008000E2045088A00440E8300FE0E7E0E6C
:100218000900A1203230C6000030C7005F20080066
:10022800A1201430C6000030C7005F200800A120BC
:100238006330C6000030C7005F200800FE30C600EB
:100248004608B0050800BF30C6004608A6050800E5
:10025800FE30C60046089F050800BE1408009D0130
:0A0268000800C02008004D0808003F
:02400E00E03D93
:00000001FF
