:020000000A28CC
:10000800FE00030ED8000A08D900D5290B28DB0109
:10001800DC01DD01DE01830198290030CC000030CD
:10002800CB000030CA000030C90043084204410434
:1000380040040319202821286E28CD01CD0A312833
:100048000130C8000310C00DC10DC20DC30DC80B8F
:1000580026280130C8004808CD07C31F3428352892
:1000680024280130C8000310C90DCA0DCB0DCC0DD2
:10007800C80B372843084702031D4C28420846028C
:10008800031D4C2841084502031D4C284008440222
:10009800031C4F2850285F284008C4024108031C4D
:1000A800410FC5024208031C420FC6024308031C45
:1000B800430FC702491401300310C30CC20CC10C12
:1000C800C00CFF3E031D60280130CD02031D6D28C2
:1000D8006E2835284C08C3004B08C2004A08C100E6
:1000E8004908C00008008B1C7A287B28D0281A30C1
:1000F800D700F830D600D60B7F28D70B7F28000012
:1001080005198728882894280130D6005608DD0765
:1001180004305D02031C912892289328DD01DB013D
:10012800051D9728982894281A30D700F830D6004B
:10013800D60B9C28D70B9C2800005B08031DA5281C
:10014800A628CC28ED21003A031DAB28AC28AF28FF
:10015800E921E221CA28EB2184216A21ED21013A13
:10016800031DB728B828BA28B921CA28ED21023AB0
:10017800031DBF28C028C228AF21CA28ED21033A91
:10018800031DC728C828CA28C321CA280130DB0094
:10019800FD30D60056088B0508000030C30000303B
:1001A800C2000330C100FF30C0005108C70050082A
:1001B800C6004F08C5004E08C40024214308D100DA
:1001C8004208D0004108CF004008CE000030C300EC
:1001D8000030C2000030C1006430C0005108C700C0
:1001E8005008C6004F08C5004E08C4001120430837
:1001F800D1004208D0004108CF004008CE004F0887
:10020800D5004E08D400FF30D4050330D505550875
:10021800D3005408D2000310D30CD20C0310D30C13
:10022800D20C5208980054080339D2000530031044
:10023800D20DFF3E031D1B290310520D9700080025
:100248000030CC000030CB000030CA000030C900BC
:10025800401C2F29302947294408C907450803119C
:100268000318013E03193929CA0746080311031860
:10027800013E03194029CB07470803110318013E23
:1002880003194729CC070130C8000310C40DC50D58
:10029800C60DC70DC80B492901300310C30CC20C89
:1002A800C10CC00CFF3E031D512943084204410400
:1002B8004004031D602961292C294C08C3004B0800
:1002C800C2004A08C1004908C0000800FD30C0004B
:1002D8004008870586148814C03099007F3098003C
:1002E800C0309700FF3092009101FD30C0004008F7
:1002F8008C0504309300FD30C000400886050800D6
:100308008614990193019201910198019701FD309A
:10031800C00040088705FD30C00040088805FD3052
:10032800C000400886050800A421CD21E521E72169
:10033800013A031DA029A1299B2963009B290A28AA
:100348000430860088018B013F30DA005A088E0598
:1003580090308B0008000030D1000030D000003011
:10036800CF003230CE00D12008000030D10000305C
:10037800D0000030CF001430CE00D120080000306B
:10038800D1000030D0000030CF005F30CE00D12047
:100398000800083089009F019D010230BE00DD2160
:1003A8000800772059088A00580E8300FE0E7E0E3A
:1003B8000900FE30DA005A08870508000130DC0021
:1003C8000800DE0108005C08080084210800DC0140
:0603D80008005D080800AA
:02400E00E03D93
:00000001FF
