:020000000A28CC
:10000800FE00030ED8000A08D900E0290B28DB01FE
:10001800DC01DD018301B8290030CC000030CB00C1
:100028000030CA000030C9004308420441044004BB
:1000380003191F2820286D28CD01CD0A302801304A
:10004800C8000310C00DC10DC20DC30DC80B252873
:100058000130C8004808CD07C31F33283428232897
:100068000130C8000310C90DCA0DCB0DCC0DC80B4B
:10007800362843084702031D4B2842084602031D41
:100088004B2841084502031D4B2840084402031C25
:100098004E284F285E284008C4024108031C410F1F
:1000A800C5024208031C420FC6024308031C430F43
:1000B800C702491401300310C30CC20CC10CC00C98
:1000C800FF3E031D5F280130CD02031D6C286D28FB
:1000D80034284C08C3004B08C2004A08C10049082C
:1000E800C00008000030C3000030C2000330C10067
:1000F800FF30C0005108C7005008C6004F08C500AF
:100108004E08C400C9204308D1004208D000410865
:10011800CF004008CE000030C3000030C2000030DD
:10012800C1006430C0005108C7005008C6004F081D
:10013800C5004E08C40010204308D1004208D00072
:100148004108CF004008CE004F08D5004E08D40023
:10015800FF30D4050330D5055508D3005408D20024
:100168000310D30CD20C0310D30CD20C52089800F5
:1001780054080339D20005300310D20DFF3E031D89
:10018800C0280310520D970008000030CC00003042
:10019800CB000030CA000030C900401CD428D52844
:1001A800EC284408C907450803110318013E031940
:1001B800DE28CA07460803110318013E0319E5287B
:1001C800CB07470803110318013E0319EC28CC0795
:1001D8000130C8000310C40DC50DC60DC70DC80BEE
:1001E800EE2801300310C30CC20CC10CC00CFF3E3A
:1001F800031DF6284308420441044004031D052951
:100208000629D1284C08C3004B08C2004A08C1007F
:100218004908C00008008B1C1229132950290D30E9
:10022800D700FB30D600D60B1729D70B17291C2966
:10023800051D1F2920291C290130D6005608DC0776
:1002480004305C02031C29292A292B29DC01F72107
:100258005C08031D302931293429CF21F0214C298C
:10026800FD21013A031D39293A293C2992214B29BC
:10027800FD21023A031D4129422944297F214B29A6
:10028800FD21033A031D49294A294B29A521FB21B0
:10029800FD30D60056088B050800FD30C000400828
:1002A800870586148814C03099007F309800C030C4
:1002B8009700FF3092009101FD30C00040088C0586
:1002C80004309300FD30C0004008860508008614FD
:1002D800990193019201910198019701FD30C000A5
:1002E80040088705FD30C00040088805FD30C00083
:1002F800400886050800F921003A031D842985294C
:1003080091296B2151210030D1000030D0000030FC
:10031800CF003230CE007620ED210800F921003AD6
:10032800031D97299829A4296B2151210030D10058
:100338000030D0000030CF001430CE007620ED2100
:100348000800F921003A031DAA29AB29B7296B2116
:1003580051210030D1000030D0000030CF005F3094
:10036800CE007620ED210800C421D821F321F52103
:10037800013A031DC029C129BB296300BB290A28EA
:100388000430860088018B013F30DA005A088E0558
:1003980090308B000800F921003A031DD429D52993
:1003A800D7296B21ED210800083089009F019D01A4
:1003B8000230BE00E82108000F2159088A00580EB3
:1003C8008300FE0E7E0E0900FE30DA005A0887050B
:1003D80008000130DD0008000130DB000800DD0105
:1003E80008005B080800DD0108005D080800DB0163
:0603F80008005C0808008B
:02400E00E03D93
:00000001FF
