:020000000A28CC
:10000800FE00030EC4000A08C500A8290B28E10158
:10001800830152295708031D1F285608031D1F284E
:100028005508031D1F2865305402031D1B28031C97
:100038001E281F2827280030D7000030D60000309F
:10004800D5006430D4000030C9000030C800033047
:10005800C700FF30C6005708CD005608CC00550829
:10006800CB005408CA00E0204908D7004808D60049
:100078004708D5004608D4000030C9000030C80041
:100088000030C7006430C6005708CD005608CC00C1
:100098005508CB005408CA007A204908D7004808F8
:1000A800D6004708D5004608D4005508DB00540898
:1000B800DA00FF30DA050330DB055A080339D800C7
:1000C80005300310D80DFF3E031D65280310580D99
:1000D80097005B08D9005A08D8000310D90CD80C2F
:1000E8000310D90CD80C5808980008000030D2002A
:1000F8000030D1000030D0000030CF00490848045B
:1001080047044604031989288A28D728D301D30A23
:100118009A280130CE000310C60DC70DC80DC90DB1
:10012800CE0B8F280130CE004E08D307C91F9D285B
:100138009E288D280130CE000310CF0DD00DD10D93
:10014800D20DCE0BA02849084D02031DB52848083A
:100158004C02031DB52847084B02031DB528460865
:100168004A02031CB828B928C8284608CA02470802
:10017800031C470FCB024808031C480FCC02490850
:10018800031C490FCD024F1401300310C90CC80CD1
:10019800C70CC60CFF3E031DC9280130D302031D3E
:1001A800D628D7289E285208C9005108C8005008E8
:1001B800C7004F08C60008000030D2000030D10048
:1001C8000030D0000030CF00461CEB28EC28032973
:1001D8004A08CF074B0803110318013E0319F528F5
:1001E800D0074C0803110318013E0319FC28D10756
:1001F8004D0803110318013E03190329D2070130E2
:10020800CE000310CA0DCB0DCC0DCD0DCE0B05299C
:1002180001300310C90CC80CC70CC60CFF3E031DE7
:100228000D294908480447044604031D1C291D29B3
:10023800E8285208C9005108C8005008C7004F08EC
:10024800C60008009021003A03192B292C295129AE
:10025800C201C30100000130C2070318C30A0030FD
:10026800C30727304302103003194202031C3D29FB
:100278003E292E290130C1004108E10704306102FE
:10028800031C472948294929E101FE30C1004108DA
:100298009C05FE30C10041088B0508009D21643093
:1002A800E0000130E0026008031D5B295C295E293B
:1002B8006430E0006008DC00DD01DE01DF015F087A
:1002C800D7005E08D6005D08D5005C08D4000E2073
:1002D8000230DE000430DD00BA30DC00DC0B7229AD
:1002E800DD0B7229DE0B7229000055290A288814B3
:1002F8008614FF30920005309300FD30C600460892
:100308008C05FF309800C0309700C0309900FD3050
:10031800C600460886050800C0010B1C94299529CB
:100328009B291C1C982999299B29C001C00A4008AF
:1003380008007B210030D7000030D6000030D500FF
:100348001430D4000E200800262145088A00440EE7
:080358008300FE0E7E0E090079
:02400E00E03D93
:00000001FF
