:020000000A28CC
:10000800FE00030EC2000A08C300E1290B28DA012A
:10001800DB01DC01830128295508031D2128540828
:10002800031D21285308031D212865305202031D92
:100038001D28031C2028212829280030D50000303D
:10004800D4000030D3006430D2000030C700003044
:10005800C6000330C500FF30C4005508CB00540863
:10006800CA005308C9005208C800E2204708D50052
:100078004608D4004508D3004408D2000030C70021
:100088000030C6000030C5006430C4005508CB00FD
:100098005408CA005308C9005208C8007C20470801
:1000A800D5004608D4004508D3004408D2005308B8
:1000B800D9005208D800FF30D8050330D9055908AF
:1000C800D7005808D6000310D70CD60C0310D70C4D
:1000D800D60C5608980058080339D6000530031086
:1000E800D60DFF3E031D73280310560D9700080018
:1000F8000030D0000030CF000030CE000030CD00FE
:10010800470846044504440403198B288C28D92839
:10011800D101D10A9C280130CC000310C40DC50DB3
:10012800C60DC70DCC0B91280130CC004C08D10767
:10013800C71F9F28A0288F280130CC000310CD0DA1
:10014800CE0DCF0DD00DCC0BA22847084B02031DB6
:10015800B72846084A02031DB72845084902031D67
:10016800B72844084802031CBA28BB28CA284408F0
:10017800C8024508031C450FC9024608031C460F60
:10018800CA024708031C470FCB024D140130031065
:10019800C70CC60CC50CC40CFF3E031DCB28013090
:1001A800D102031DD828D928A0285008C7004F0815
:1001B800C6004E08C5004D08C40008000030D00035
:1001C8000030CF000030CE000030CD00441CED28B8
:1001D800EE2805294808CD07490803110318013EF0
:1001E8000319F728CE074A0803110318013E03191B
:1001F800FE28CF074B0803110318013E03190529F0
:10020800D0070130CC000310C80DC90DCA0DCB0DA5
:10021800CC0B072901300310C70CC60CC50CC40C45
:10022800FF3E031D0F294708460445044404031DE7
:100238001E291F29EA285008C7004F08C6004E0883
:10024800C5004D08C4000800C521D921F921003A8C
:10025800031D2F2930293329D02163002A29F921A8
:10026800013A031D382939293B298E212A29F921E8
:10027800023A031D4029412943297B212A29F921D2
:10028800033A031D482949294B29A1212A292A294A
:100298000A28FD30C4004408870586148814C03035
:1002A80099007F309800C0309700FF30920091018C
:1002B800FD30C40044088C0504309300FD30C400B0
:1002C800440886050800861498019701990192014F
:1002D80091019301FD30C40044088705FD30C40036
:1002E80044088805FD30C400440886050800F72145
:1002F800003A031D802981298D2967214D2100306D
:10030800D5000030D4000030D3003230D2001020A5
:10031800F4210800F721003A031D93299429A02904
:1003280067214D210030D5000030D4000030D300C3
:100338001430D2001020F4210800F721003A031DE0
:10034800A629A729B32967214D210030D5000030FF
:10035800D4000030D3005F30D2001020F421080010
:100368000130C0004008DA0703305A02031CBD29D7
:10037800BE29BF29DA010519C229C329BF29FB21D2
:1003880008000430860088018B013F30C40044080F
:100398008E0590308B000800F721003A031DD529FF
:1003A800D629D8296721F4210800083089009F013F
:1003B8009D010230BE00EF210800E92143088A00B0
:1003C800420E8300FE0E7E0E0900B421FD30C100EE
:1003D80041088B050800FE30C40044088705080062
:1003E8000130DC0008005C0808005A080800DC013D
:0203F8000800FB
:02400E00E03D93
:00000001FF
