:020000000A28CC
:10000800FE00030EC2000A08C300D7290B28DA0134
:10001800DB01DC01DD01830110290030D000003054
:10002800CF000030CE000030CD004708460445041C
:1000380044040319202821286E28D101D10A312827
:100048000130CC000310C40DC50DC60DC70DCC0B77
:1000580026280130CC004C08D107C71F3428352882
:1000680024280130CC000310CD0DCE0DCF0DD00DBE
:10007800CC0B372847084B02031D4C2846084A0278
:10008800031D4C2845084902031D4C284408480212
:10009800031C4F2850285F284408C8024508031C41
:1000A800450FC9024608031C460FCA024708031C2D
:1000B800470FCB024D1401300310C70CC60CC50CFA
:1000C800C40CFF3E031D60280130D102031D6D28BA
:1000D8006E2835285008C7004F08C6004E08C500CE
:1000E8004D08C40008000030C7000030C6000330C7
:1000F800C500FF30C4005508CB005408CA00530897
:10010800C9005208C800CA204708D5004608D400CC
:100118004508D3004408D2000030C7000030C600AC
:100128000030C5006430C4005508CB005408CA002C
:100138005308C9005208C80011204708D5004608CE
:10014800D4004508D3004408D2005308D900520807
:10015800D800FF30D8050330D9055908D70058080A
:10016800D6000310D70CD60C0310D70CD60C5608A3
:10017800980058080339D60005300310D60DFF3E05
:10018800031DC1280310560D970008000030D00049
:100198000030CF000030CE000030CD00441CD52800
:1001A800D628ED284808CD07490803110318013E51
:1001B8000319DF28CE074A0803110318013E031963
:1001C800E628CF074B0803110318013E0319ED2851
:1001D800D0070130CC000310C80DC90DCA0DCB0DD6
:1001E800CC0BEF2801300310C70CC60CC50CC40C8F
:1001F800FF3E031DF7284708460445044404031D31
:1002080006290729D2285008C7004F08C6004E08FB
:10021800C5004D08C4000800BB21CF21EF21F32100
:10022800003A031D182919293129F121013A031D22
:100238001E291F29212997211329F121023A031D7B
:1002480026292729292985211329F121033A031D64
:100258002E292F293329A9211329630013291329AA
:100268000A288B1C38293929562905193C293D2982
:1002780039290130C1004108DB0704305B02031C47
:10028800462947294829DB01F5215B08031D4D292B
:100298004E295129C621EA215229F921FD30C100F0
:1002A80041088B050800FD30C40044088705861402
:1002B8008814C03099007F309800C0309700FF3014
:1002C80092009101FD30C40044088C05043093006D
:1002D800FD30C4004408860508008614990193017E
:1002E8009201910198019701FD30C00040088705EF
:1002F800FD30C00040088805FD30C0004008860574
:100308000800ED21003A031D8A298B2996295721D7
:100318000030D5000030D4000030D3003230D20095
:100328007720E4210800ED21003A031D9C299D292E
:10033800A82957210030D5000030D4000030D30060
:100348001430D2007720E4210800ED21003A031D83
:10035800AE29AF29BA2957210030D5000030D40082
:100368000030D3005F30D2007720E4210800043049
:10037800860088018B013F30C40044088E05903008
:100388008B000800F721003A031DCB29CC29CE2980
:100398007121E7210800083089009F019D01023082
:1003A800BE00DF210800352143088A00420E830081
:1003B800FE0E7E0E0900FE30C400440887050800C2
:1003C8000130DC0008000130DC0008000130DA00F0
:1003D80008005C080800DC0108005B0808005A08EF
:0E03E8000800DC0108005C080800DA010800CB
:02400E00E03D93
:00000001FF
