:020000000A28CC
:10000800FE00030EC3000A08C400E5290B28DB0123
:10001800DC01830127295608031D20285508031DE4
:1000280020285408031D202865305302031D1C286E
:10003800031C1F28202828280030D6000030D500AF
:100048000030D4006430D3000030C8000030C7004E
:100058000330C600FF30C5005608CC005508CB0059
:100068005408CA005308C900E1204808D6004708C8
:10007800D5004608D4004508D3000030C800003039
:10008800C7000030C6006430C5005608CC005508CB
:10009800CB005408CA005308C9007B204808D60082
:1000A8004708D5004608D4004508D3005408DA00AC
:1000B8005308D900FF30D9050330DA055A08D800AB
:1000C8005908D7000310D80CD70C0310D80CD70C3C
:1000D8005708980059080339D70005300310D70D81
:1000E800FF3E031D72280310570D970008000030CB
:1000F800D1000030D0000030CF000030CE004808DA
:1001080047044604450403198A288B28D828D201B5
:10011800D20A9B280130CD000310C50DC60DC70DAE
:10012800C80DCD0B90280130CD004D08D207C81F4F
:100138009E289F288E280130CD000310CE0DCF0DAC
:10014800D00DD10DCD0BA12848084C02031DB628AF
:1001580047084B02031DB62846084A02031DB62865
:1001680045084902031CB928BA28C9284508C90204
:100178004608031C460FCA024708031C470FCB0258
:100188004808031C480FCC024E1401300310C80C59
:10019800C70CC60CC50CFF3E031DCA280130D2028D
:1001A800031DD728D8289F285108C8005008C70021
:1001B8004F08C6004E08C50008000030D1000030C6
:1001C800D0000030CF000030CE00451CEC28ED28D0
:1001D80004294908CE074A0803110318013E0319E8
:1001E800F628CF074B0803110318013E0319FD2811
:1001F800D0074C0803110318013E03190429D1073D
:100208000130CD000310C90DCA0DCB0DCC0DCD0B9F
:10021800062901300310C80CC70CC60CC50CFF3EDC
:10022800031D0E294808470446044504031D1D29DB
:100238001E29E9285108C8005008C7004F08C60001
:100248004E08C5000800C921DD21FC21003A031D24
:100258002E292F293229D42163002929FC21013A8A
:10026800031D372938293A29A5212929FC21023AD1
:10027800031D3F294029422993212929FC21033ABA
:10028800031D472948294A29B721292929290A2844
:10029800FD30C5004508870586148814C0309900CC
:1002A8007F309800C0309700FF3092009101FD30F8
:1002B800C50045088C0504309300FD30C50045088D
:1002C800860508000130C0004008DB0704305B02E7
:1002D800031C6F2970297129DB010330C200083023
:1002E800C1007730C000C00B7729C10B7729C20B3A
:1002F8007729FE2108008614980197019901920137
:1003080091019301FD30C50045088705FD30C50002
:1003180045088805FD30C500450886050800FA210E
:10032800003A031D98299929A4294C210030D600A8
:100338000030D5000030D4003230D3000F20F22135
:100348000800FA21003A031DAA29AB29B6294C2135
:100358000030D6000030D5000030D4001430D3006F
:100368000F20F2210800FA21003A031DBC29BD29FB
:10037800C8294C210030D6000030D5000030D40008
:100388006330D3000F20F221080004308600880172
:100398008B013F30C50045088E0590308B00080062
:1003A800FA21003A031DD929DA29DC297F21F22113
:1003B8000800083089009F019D010230BE00ED2130
:1003C8000800F72144088A00430E8300FE0E7E0EC3
:1003D8000900FE30C50045088705080090308B00ED
:1003E8000130DC00080066218B0108005C08080069
:0803F8005B080800DC010800AD
:02400E00E03D93
:00000001FF
