:020000000A28CC
:10000800FE00030EC4000A08C500BE280B28C7015D
:1000180083013A289B20003A031913281428392809
:10002800C201C30100000130C2070318C30A00302F
:10003800C30727304302103003194202031C252846
:10004800262816280130C1004108C7070430470296
:10005800031C2F2830283128C701FE30C100410871
:100068009C05FE30C10041088B05080060208E20E9
:10007800A820E420003A031D422843284628D5201A
:1000880063003D28E420013A031D4B284C284E28E4
:10009800E0203D28E420023A031D5328542856281E
:1000A800DE203D28E420033A031D5B285C285E28F7
:1000B800E2203D283D280A280614FE30C6004608DE
:1000C80088051B148B1969286A286B288B158B1BCC
:1000D8006E286F2870288B170B18732874287828B7
:1000E800FE30C60046088B051C1C7B287C2880280F
:1000F800FE30C60046089C050800FB30C6004608CE
:100108008605FB30C60046088805FB30C600460851
:1001180087050800FD30C60046088605FD30C60084
:1001280046088805FD30C600460887050800C00156
:100138000B1C9F28A028A6281C1CA328A428A62896
:10014800C001C00A400808007F308E008915B3201E
:10015800CB20C620D020DC20DA20812008006030A7
:100168009000901DB828B928B528101CBC28BD28B7
:10017800B92808000E2045088A00440E8300FE0EA8
:100188007E0E0900FE30C6004608B0050800BF30E4
:10019800C6004608A6050800FE30C60046089F05AA
:1001A8000800FD30C600460887050800BE14080090
:1001B8009D010800871408008714080087140800A8
:0401C80047080800DC
:02400E00E03D93
:00000001FF
