:020000000A28CC
:10000800FE00030EC4000A08C50056280B28C001CC
:10001800C101C201C301830111283A204E206B207F
:10002800003A031D18281928222805191C281D28FC
:1000380013280519202821281D2813284520630086
:1000480013280A28861498019701990192019101B1
:100058009301FD30C60046088705FD30C6004608F6
:100068008805FD30C600460886050800043086006D
:1000780088018B013F30C60046088E0590308B0002
:1000880008006920003A031D4A284B284D282620DD
:1000980063200800083089009F019D010230BE00DE
:1000A8005E200800662045088A00440E8300FE0E84
:1000B8007E0E0900FE30C60046088705080001309C
:1000C800C20008008B01C00108004208080040086F
:0200D80008001E
:02400E00E03D93
:00000001FF
